S012000050574D5F4472617765722E737265635A
S11300000C942A000C9447000C9447000C9447006D
S11300100C9447000C9447000C9447000C94470040
S11300200C9447000C9447000C946E040C94AB049D
S11300300C9447000C9447000C9447000C94470020
S11300400C9447000C9447000C9447000C94470010
S11300500C94470011241FBECFE5D8E0DEBFCDBF0E
S113006010E0A0E6B0E0EEEEF9E002C005900D92DB
S1130070AC39B107D9F720E0ACE9B0E001C01D927A
S1130080A43AB207E1F70E94C7020C94F5040C9459
S11300900000813011F130F08230D1F1833009F465
S11300A052C00895413059F42AB381E090E002C06F
S11300B0880F991F6A95E2F7822B8ABB0895411134
S11300C05CC02AB381E090E002C0880F991F6A9552
S11300D0E2F7809582238ABB0895413059F427B30F
S11300E081E090E002C0880F991F6A95E2F7822BA5
S11300F087BB0895411141C027B381E090E002C05D
S1130100880F991F6A95E2F78095822387BB08952B
S1130110413059F424B381E090E002C0880F991F64
S11301206A95E2F7822B84BB0895411126C024B35B
S113013081E090E002C0880F991F6A95E2F78095EC
S1130140822384BB0895413059F421B381E090E0C7
S113015002C0880F991F6A95E2F7822B81BB08952C
S113016041110BC021B381E090E002C0880F991FB8
S11301706A95E2F78095822381BB0895813001F16D
S113018030F08230C1F1833009F450C00895413019
S113019059F42BB381E090E002C0880F991F6A954F
S11301A0E2F7822B8BBB08952BB381E090E002C071
S11301B0880F991F6A95E2F7809582238BBB089577
S11301C0413059F428B381E090E002C0880F991FB0
S11301D06A95E2F7822B88BB0895411141C028B388
S11301E081E090E002C0880F991F6A95E2F780953C
S11301F0822388BB0895413059F425B381E090E00F
S113020002C0880F991F6A95E2F7822B85BB089577
S1130210411126C025B381E090E002C0880F991FE8
S11302206A95E2F78095822385BB0895413059F49D
S113023022B381E090E002C0880F991F6A95E2F72B
S1130240822B82BB089541110BC022B381E090E060
S113025002C0880F991F6A95E2F78095822382BBBA
S11302600895CF93C62F882319F08130B1F169C066
S113027060FF06C041E064E080E00E94BE0005C06B
S113028040E064E080E00E94BE00C1FF06C041E09F
S113029065E080E00E94BE0005C040E065E080E0CB
S11302A00E94BE00C2FF06C041E066E080E00E94FA
S11302B0BE0005C040E066E080E00E94BE00C3FFCF
S11302C006C041E067E080E00E94BE003AC040E022
S11302D067E080E00E94BE0034C064FF06C041E0D5
S11302E064E080E00E94BE0005C040E064E080E07D
S11302F00E94BE00C5FF06C041E065E080E00E94A8
S1130300BE0005C040E065E080E00E94BE00C6FF7C
S113031006C041E066E080E00E94BE0005C040E007
S113032066E080E00E94BE00CC2334F441E067E044
S113033080E00E94BE0005C040E067E080E00E94CB
S1130340BE00CF91089541E062E080E00E94BE00CB
S11303508FE39FE10197F1F700C0000040E062E005
S113036080E00E94BE000895CF93C82F40E060E073
S113037080E00E94BE0040E061E080E00E94BE0098
S11303806C2F81E00E9431010E94A3016C2F80E058
S11303900E9431010E94A301CF910895CF93C82FE9
S11303A041E060E080E00E94BE0040E061E080E067
S11303B00E94BE006C2F81E00E9431010E94A301C3
S11303C06C2F80E00E9431010E94A301CF91089517
S11303D041E060E080E00E94490041E061E080E0AB
S11303E00E94490041E062E080E00E94490041E04F
S11303F064E080E00E94490041E065E080E00E9402
S1130400490041E066E080E00E94490041E067E085
S113041080E00E9449002FEF83EF91E0215080405B
S11304209040E1F700C0000062E080E00E943101EA
S11304300E94A30162E080E00E9431010E94A301B6
S113044068E080E00E9431010E94A3018CE00E94D8
S1130450B40181E00E94B40108950F931F93CF93D8
S11304608C01C0E003C00E94CE01CF5FF801EC0F05
S1130470F11DC7FDFA9580818111F5CFCF911F91B0
S11304800F910895662329F0613011F4805C01C056
S113049080E080680E94B4010895EF92FF920F9368
S11304A01F93CF93DF93F82EE62ED42F8901842F48
S11304B0880F880F880F8F7780640E94B401C0E092
S11304C007C0F801EC0FF11D80810E94CE01CF5FBF
S11304D0C830B8F36E2D8F2D0E9442028D2F0E94DA
S11304E0CE01DF91CF911F910F91FF90EF9008956E
S11304F0EF92FF921F93CF93DF93CDB7DEB72A9786
S11305000FB6F894DEBF0FBECDBF7C01009721F477
S113051080E30E94CE0108C0992334F48DE20E9446
S1130520CE01F194E194F10810E0E114F10499F0A2
S1130530C7016AE070E00E94CD04E1E0F0E0EC0F56
S1130540FD1FE10FF11D17FDFA95805D8083E62EF6
S1130550F72E1F5FEACF11500CC0E1E0F0E0EC0F82
S1130560FD1FE10FF11D17FDFA9580810E94CE0158
S11305701150112394F72A960FB6F894DEBF0FBEDC
S1130580CDBFDF91CF911F91FF90EF9008950E940E
S1130590E80141E063E081E00E9449000E945504C3
S11305A080E80E946C040E94620481E00E94B4010D
S11305B081E00E94B40144E06AEF82E30E94ED020C
S11305C082E30E943D032FEF81EE94E021508040AE
S11305D09040E1F700C00000EBCF1F93CF93DF936F
S11305E0C82F162FD42F60E070E080E090E00E94C6
S11305F04202812F90E00E94780260E070E083E084
S113060090E00E94420280E690E00E942D0260E0A9
S113061070E088E090E00E9442028D2F90E00E94FA
S1130620780224E730E044E050E060E070E089E0E4
S113063090E00E944D022CE630E045E050E060E09E
S113064070E08AE090E00E944D0260E070E08DE08E
S113065090E00E9442028C2F90E00E94780224E6EF
S113066030E046E050E060E070E08FE090E00E940F
S11306704D02DF91CF911F9108950F931F93CF9354
S1130680DF93CDB7DEB760970FB6F894DEBF0FBE29
S1130690CDBF282F90E0880F991F880F991F880FCE
S11306A0991F64E670E00E94CD04A62FB72F562F41
S11306B0243609F4C6C021110CC0C3C0E1E0F0E047
S11306C0EC0FFD1FE80FF91F24E930E020834F5F92
S11306D001C040E0842F90E09D013327F901319758
S11306E08E179F075CF38FEF860F0AC0E1E0F0E0FE
S11306F0EC0FFD1FE80FF11DA4E8B0E0A0838F5FAD
S11307008517A0F3862F0AC0E1E0F0E0EC0FFD1F8F
S1130710E80FF11D4CE850E040838F5F8730A0F371
S113072087E00AC0E1E0F0E0EC0FFD1FE80FF11DE7
S11307304CE750E040838F5F8830A0F348E00AC064
S1130740A1E0B0E0AC0FBD1FA80FB91FE4E9F0E0D1
S1130750EC934F5F842F90E0F90137968E179F0733
S11307607CF347E0460F0AC0A1E0B0E0AC0FBD1F28
S1130770A80FB91FE4E8F0E0EC934F5F842F90E0FA
S1130780F90138968E179F077CF3685F0AC0E1E091
S1130790F0E0EC0FFD1FE60FF11D8CE890E0808384
S11307A06F5F6F30A0F38FE00AC0E1E0F0E0EC0F80
S11307B0FD1FE80FF11D2CE730E020838F5F8031AF
S11307C0A0F300E010E039C0E1E0F0E0EC0FFD1F21
S11307D0E00FF11F208130E0C90140E024393407E3
S11307E041F441E050E061E070E0C8010E944D0234
S11307F022C040E08438940741F442E050E061E0D4
S113080070E0C8010E944D0216C040E08C38940785
S113081041F440E050E061E070E0C8010E944D0204
S11308200AC08C57904039F443E050E061E070E036
S1130830C8010E944D020F5F1F4F0031110524F2C1
S113084029C0243699F40CC024E930E041E050E09A
S113085061E070E0C8010E944D020F5F1F4F02C0AB
S113086000E010E0013111057CF314C0222369F08B
S113087011C02CE830E040E050E061E070E0C801D5
S11308800E944D020F5F1F4F02C000E010E00131D3
S113089011057CF360960FB6F894DEBF0FBECDBF92
S11308A0DF91CF911F910F91089583B7806483BF27
S11308B083B7886083BF83B78F7E83BF83B780622B
S11308C083BF089583B7816083BF83B7826083BF8A
S11308D083B78B7F83BF08958CBF08951F920F92B7
S11308E00FB60F9211242F933F934F935F936F93FF
S11308F07F938F939F93AF93BF93EF93FF938091D5
S11309009E0090919F00019690939F0080939E007B
S11309102091A2003091A3008217930759F41092FA
S11309209F0010929E00E091A000F091A1003097EA
S113093009F00995FF91EF91BF91AF919F918F912C
S11309407F916F915F914F913F912F910F900FBEC7
S11309500F901F9018951F920F920FB60F921124AB
S11309602F938F939F9380919C0090919D0001966B
S113097090939D0080939C00813D934031F480E7E7
S113098082BF10929D0010929C009F918F912F9195
S11309900F900FBE0F901F90189597FB072E16F41B
S11309A0009407D077FD09D00E94E10407FC05D02C
S11309B03EF4909581959F4F0895709561957F4F72
S11309C00895AA1BBB1B51E107C0AA1FBB1FA61792
S11309D0B70710F0A61BB70B881F991F5A95A9F7E4
S11109E080959095BC01CD010895F894FFCF49
S11309EE4B487A00001902040812000000001F1080
S11309FE1F011F00121212121E1310001F101010CE
S1130A0E101010001F01010101010100000000007F
S10F0A1E00001F001F000000000000008A
S9030000FC
